:020000022000DC
:1060000000000120B5620200DD620200DF620200D2
:10601000E1620200E3620200E562020000000000AB
:10602000000000000000000000000000E762020025
:10603000E962020000000000EB620200ED62020073
:10604000559C0200EF62020095A00200EF62020080
:10605000EF620200EF620200119F0200EF62020095
:10606000EF620200EF620200EF620200EF620200E4
:10607000EF620200EF620200EF620200EF620200D4
:10608000EF620200957A0200EF620200EF62020006
:10609000EF620200EF6202005DFF0200EF620200A9
:1060A000EF620200EF620200EF620200EF620200A4
:1060B000EF620200EF62020000000000000000003A
:1060C000EF620200EF620200EF620200EF62020084
:1060D000EF620200EF620200EF62020000000000C7
:1060E00000000000000000000000000000000000B0
:1060F00000000000000000000000000000000000A0
:10610000000000000000000000000000000000008F
:10611000000000000000000000000000000000007F
:10612000000000000000000000000000000000006F
:10613000000000000000000000000000000000005F
:10614000000000000000000000000000000000004F
:10615000000000000000000000000000000000003F
:10616000000000000000000000000000000000002F
:10617000000000000000000000000000000000001F
:10618000000000000000000000000000000000000F
:1061900000000000000000000000000000000000FF
:1061A00000000000000000000000000000000000EF
:1061B00000000000000000000000000000000000DF
:1061C00000000000000000000000000000000000CF
:1061D00000000000000000000000000000000000BF
:1061E00000000000000000000000000000000000AF
:1061F000000000000000000000000000000000009F
:1062000010B5054C237833B9044B13B10448AFF3F0
:1062100000800123237010BD3823002000000000FF
:10622000F42B030008B5034B1BB103490348AFF33C
:10623000008008BD000000003C230020F42B030078
:10624000154B002B08BF134B9D46A3F5803A002148
:106250008B460F461348144A121A0AF021F80F4BC6
:10626000002B00D098470E4B002B00D09847002001
:10627000002104000D000D48002802D00C48AFF3A7
:10628000008009F0CDFF2000290004F0A3FF09F0F1
:10629000B3FF00BF00000800000001200000000064
:1062A00000000000382300202436002000000000F9
:1062B000000000000649074A074B9B1A03DD043B18
:1062C000C858D050FBDC00F0E1FDFFF7B9FF00003B
:1062D000802D03007022002038230020FEE7FEE717
:1062E000FEE7FEE7FEE7FEE7FEE7FEE7FEE7FEE786
:1062F000F0B595B01D46164608460C4603F030FA38
:106300001A9B0D93CDE9086500252B46082205A9A7
:1063100020460A958DF82C500C9503F03EFA079B09
:106320000293069B03939DF814308DF8115003F0EF
:106330000302012A1DD1BDF81420059DC3F3C20339
:10634000C2F383168DF81030B20008230EA9204640
:1063500003F023FAC5F3952508AB0093324602AB50
:106360000EA9284600F0FAFB204603F0FDF915B00F
:10637000F0BD022AF8D1BDF81650C3F3C203C5F32D
:1063800089158DF810300827082D2E4628BF0826BD
:106390003B4632460EA9204603F0FFF9AD1B08AB81
:1063A00002AA31460EA8374400F03CFC002DEBD188
:1063B000DAE70000014B01221A7070479523002094
:1063C0007047000070B5124D06460FCD88B06C4680
:1063D0000FC495E80F00002E84E80F004FF0FF3344
:1063E0004FF00602CDE90023CDE90233094A0A48FD
:1063F0004FF0EB7308BF00226946069303F0C2FB1F
:1064000008B100F0DDFF054B1E7008B070BD00BF85
:10641000D4050300B563020070220020542300203D
:1064200007B5044B0093044A4023FFF761FF03B014
:106430005DF804FB3D6402005523002038B50D4B88
:106440000D4D002018700D4804782D5DD2B21C4609
:1064500065B1043004F090FA08B100F0B1FF084BC8
:106460001A7812B12378002BFBD038BD0C3004F021
:106470004BF8F1E795230020203600207022002001
:106480005423002008B50848084A0378D35C3BB180
:10649000043004F0F3F9BDE808400020FFF792BF94
:1064A0000C3003F0C9FFF6E77022002020360020F0
:1064B0000120FFF787BF000008B5FFF7F9FF044888
:1064C000042100F0ABFA034B01225A7108BD00BF52
:1064D000542D030084220020037813F0040216D008
:1064E00003F00303012B03D0022B09D001207047D6
:1064F0000A6800880232C0F3831002440A60F5E79C
:106500000B684288023303EB92130B60EEE71046F0
:10651000704700002DE9F04F87B000230446861C29
:106520000DF107000F4615468DF8073001F03AF9D6
:10653000454801683960D0E90132134401335B1AE0
:10654000824600F21C4700F5836900F21448B3420A
:106550001CD30020002D73D004F00F039B0143F0E7
:10656000050363F30F00DAF80020DAF8083013406F
:10657000033316444AF823009DF80700CAF8006068
:1065800001F034F9012007B0BDE8F08F0121384651
:1065900002F04EFB484602F066FB404602F063FB09
:1065A000DAF80400DAF808B0029000EA0B000330D1
:1065B0000AEB800002A9FFF78FFF029B50BB0BEA9A
:1065C00003020AEB820203F1020CD2680392013348
:1065D00003EA0B0B0AEB8B0B02F00302012ADBF838
:1065E0000C10CDF808C023D0022A16D083464046AE
:1065F00002F03CFB10B1029BCAF804305946384601
:1066000002F016FBDAE901231344DAF80020013323
:106610009B1A9CE70BEA0300C9E7BDF80E30C3F3F1
:10662000891303334FEA114B0CEB93030293DEE71C
:10663000BDF80C30C3F383134FEA114B6344F5E705
:10664000A40544F006008EE7682400200B4B0C489C
:10665000FF2210B59A600022C3F81824C3E9002273
:10666000C3F8142483F8202403F033F8044610B947
:10667000044803F055F9204610BD00BF68240020EF
:10668000642D03002806030030B50A4C71B10A4A94
:106690000A49121BD20800239A4201D1002030BDC2
:1066A00031F82350854202D00133F5E7034654F810
:1066B0003300F4E75C2C0300242D0300202300208A
:1066C000094B013903EBC000032909D8DFE801F0C9
:1066D0000A02040604207047007970474079704729
:1066E00000207047022070475C2C0300034BD3E965
:1066F0000030C31A58425841704700BF6824002038
:106700002DE9F04387B0FFF7F1FF0646002840F07F
:10671000F9807D4DC5F81804BFF34F8F6B68AC68E6
:1067200002932340033305EB830002A9FFF7D4FE55
:10673000029B18B1D5F81824002A5FD004EA03029E
:10674000991C013305EB8202234005EB8303D268D9
:10675000DB68049302F00303022B0392029160D1E1
:10676000BDF80E306948C3F38917502FB84628BFCB
:106770004FF0500868F38F1308F10801ADF80E30A0
:1067800002F0BFFF0646002800F0A78002F0E8FFF5
:106790000023082203A9304602F0F5FF029924EAFB
:1067A00001020132B8EB820F4FEA820332D95FFA5D
:1067B00088F85BB32140DCB2A8EB040803315FFA30
:1067C00088F9A046524C05EB810108234246304629
:1067D00002F0D9FF34B108F108034A462146304699
:1067E00002F0D1FF029B033703EB97070297D5F81E
:1067F0001834002B49D1D5F8104459E02A689A4240
:106800008FD86A60304607B0BDE8F08340491C4627
:106810009946DAE70C40E11C0823424605EB81016A
:10682000DDE7012B59D1BDF80C303848C3F3831193
:10683000062928BF062161F3891302318900ADF8CA
:106840000C3002F05EFF0646002846D002F088FFBA
:106850000023082203A9304602F095FF0027BDF867
:106860000C20C2F38312BB00974203F10803BED28F
:1068700002994A1C21400331029205EB8101042256
:10688000304602F080FF0137E9E7304602F06CFF46
:10689000FFF72CFF80F00100C6B2B3E7E3685B7935
:1068A00023B1236831461B6820469847E3681C687B
:1068B000002CF3D1304602F057FF0DF107008DF8A0
:1068C000074000F06FFFD5F818340BB9029B6B60DE
:1068D0009DF8070000F08AFFDAE7D5F8104454B9B4
:1068E0000C4B0D480D49C01AC008000440F00200CE
:1068F00000F062F8CCE7236820469B689847E3687D
:106900001C68ECE700267DE768240020642D030066
:10691000742400205C2C0300842C03001106030067
:106920002DE9F74F224D04460F46924601A9012258
:106930001846D5F808909B46FFF7ECFD20B3019E62
:106940004FF00008B21CD84508EB020126D11948C7
:10695000002102F026F980F31000000440EA144000
:10696000E400731C04F0380403EA090306EA09068C
:1069700044F0010405EB8303033644EA881444EA37
:106980008724D86045F8264095F820341BB1FFF7DE
:10699000B7FE0028FBD103B0BDE8F08F09EA010182
:1069A00005EB81015AF82830CB6008F10108CAE7ED
:1069B000682400208428002000231A46FFF7B0BF77
:1069C00007B50123019201AAFFF7AAFF03B05DF802
:1069D00004FB07B5CDE9002302236A46FFF7A0FFB9
:1069E00003B05DF804FB1FB5CDE90123069B0393BB
:1069F00001AA0323FFF794FF05B05DF804FB1FB560
:106A0000CDE90023069B0293079B03936A46042368
:106A1000FFF786FF05B05DF804FB000030B5134AB0
:106A2000D2F8104403460020214649B9DC682071A1
:106A3000D2F8104454B9C2F81034DB68196030BD84
:106A4000C9680D7985420AD00968EEE7E468D9681B
:106A500024680C60D2F81024D2681360EFE701308C
:106A60000A28E1D14FF0FF30E9E700BF6824002099
:106A700038B5094A0123D2F8104482F820341D4663
:106A800004B938BDE3685D71236820465B689847A8
:106A9000E3681C68F4E700BF6824002007B50346DC
:106AA0000846197A052911D05B7A2BB1094A0A499F
:106AB000019002F040F901980849019002F03BF979
:106AC000019803B05DF804EB02F02AB9002AF8D06F
:106AD000F2E700BF34060300731F030056060300ED
:106AE00030B5C38885B004460D4633B1144A0092D0
:106AF0001449154A284602F01EF9217A05291DD0AD
:106B0000637A4BB1A088FFF7DBFD104B104953F8B7
:106B10002020284602F00FF9227A0E4BA08853F865
:106B2000222003920021FFF7AFFD039A0A49034692
:106B3000284605B0BDE8304002F0FDB805B030BDD4
:106B4000340603004106030039060300C0060300B3
:106B5000731F0300E4060300590603002DE9F04308
:106B600085B01F460C9D002395F80C902B730646AC
:106B70000C46904629463846FFF7B2FFB8F1060F9B
:106B800009D8DFE808F00412181F28334000314606
:106B9000284602F0D0F8002229463846FFF77EFF4B
:106BA00085F80C9005B0BDE8F08322683146284690
:106BB00002F0C1F8EFE7D4E900233146284602F09D
:106BC000BAF8E8E7A36800933146D4E900232846E1
:106BD00002F0B1F8DFE7E3680193A3680093314660
:106BE000D4E90023284602F0A6F8D4E723690293EB
:106BF000E3680193A36800933146D4E90023284653
:106C000002F099F8C7E76369039323690293E36885
:106C10000193A36800933146D4E90023284602F08B
:106C20008AF8B8E708292DE9F84F80460E4617463E
:106C30001C463BD8002593F80C901D73194610464E
:106C4000FFF74EFFDFF88CA0DFF88CB0AE422FD9F3
:106C500018F805205946204602F06DF80135082D38
:106C6000F4D11949194DDFF874A0204602F063F8F9
:106C70004FF0000B5E4522D918F80B207E2A1CD855
:106C8000134BD15C11F0970F08BF2E2251462046BE
:106C900002F051F80BF1010BBBF1080FEAD1012210
:106CA00021463846FFF7FAFE84F80C90BDE8F88FCD
:106CB0005146204602F03FF8D0E72E22E6E729466B
:106CC000204602F038F8E5E76D0603006B06030086
:106CD000ED2A030069060300630603006F06030044
:106CE000054A4FF0A043105CD3F8043523FA00F0B6
:106CF000C04300F001007047FC060300044B1A5C1F
:106D0000012393404FF0A042C2F80C35704700BFFA
:106D1000FC060300044B1A5C012393404FF0A04291
:106D2000C2F80835704700BFFC06030008B5002014
:106D3000FFF7F0FF0120FFF7EDFF0220FFF7EAFF6A
:106D4000BDE808400320FFF7E5BF08B50020FFF7C6
:106D5000D5FF0120FFF7D2FF0220FFF7CFFFBDE8EC
:106D600008400320FFF7CABF074A4FF0A041105C5C
:106D7000D1F804350122824022EA03001340C1F811
:106D80000805C1F80C357047FC060300054A4FF0B2
:106D9000A043105CD3F8103523FA00F0C04300F094
:106DA00001007047F80603000D2809D00E2809D00D
:106DB0000F2809D010280CBF03204FF0FF30704778
:106DC000002070470120704702207047014B185C7B
:106DD000704700BFF8060300C20708B501460CD58E
:106DE0004FF0A0430322C3F84427C3F84827C3F851
:106DF0004C27C3F85027FFF799FF8B070AD54FF0B0
:106E0000A0430C22C3F83427C3F83827C3F83C2723
:106E1000C3F8402708BD00000C4B1B78062B10D18F
:106E20000B4B1B681A070CD10A4B186800F0F003D3
:106E3000302B08D000F0E000A0F140035842584148
:106E40007047002070470120704700BFE00F00F03E
:106E5000E40F00F0E80F00F0094B1B78062B0CD173
:106E6000084B1B681A0708D1074B186800F0F000A0
:106E7000A0F130035842584170470020704700BFCE
:106E8000E00F00F0E40F00F0E80F00F008B5FFF7A6
:106E9000C3FF28B17D4B7E4A1B68C3F304231360F4
:106EA000FFF7DAFF10B17B4B7B4A1A60FFF7B4FFA4
:106EB00028B17A4B7A4A1B68C3F342331360FFF759
:106EC000CBFF20B1774AD36823F08073D360FFF7FC
:106ED000A3FF40B14FF080430022C3F80C21C3F858
:106EE0001021C3F83825FFF7B7FF10B16E4B03220E
:106EF0001A60FFF7B1FF40B16C4B05221A60012206
:106F00009A6700229A603F225A60694B1B78062BD1
:106F100050D1684B1B6819074CD1674B1B6803F0B5
:106F2000F003502B46D14FF08052644BD2F804143A
:106F3000C3F82015D2F80814C3F82415D2F80C149D
:106F4000C3F82815D2F81014C3F82C15D2F814146D
:106F5000C3F83015D2F81814C3F83415D2F81C143D
:106F6000C3F84015D2F82014C3F84415D2F82414FD
:106F7000C3F84815D2F82814C3F84C15D2F82C14CD
:106F8000C3F85015D2F83014C3F85415D2F834149D
:106F9000C3F86015D2F83814C3F86415D2F83C145D
:106FA000C3F86815D2F84014C3F86C15D2F844241D
:106FB000C3F87025FFF730FF28B1414B414A1B68E9
:106FC00003F04F031360FFF727FF48B14FF08043F2
:106FD000D3F80024D20744BF6FF00102C3F80024A5
:106FE000394B1B68062B08D1384B1B68062B01BF99
:106FF000374A136843F480631360364AD2F8883006
:1070000043F47003C2F88830BFF34F8FBFF36F8F24
:107010004FF01023D3F80022002A03DBD3F8043208
:10702000002B2FDA2C4B0122C3F80425D3F80024BF
:10703000002AFBD04FF010221521C2F80012D3F81D
:107040000024002AFBD04FF010231522C3F804229D
:10705000214B1A46D3F800140029FBD00021C3F8B5
:107060000415D2F80034002BFBD0BFF34F8F194921
:107070001A4BCA6802F4E0621343CB60BFF34F8F30
:1070800000BFFDE7164B174A1A6008BD2403001025
:107090004035014074C007400DF0ADBA4402001005
:1070A0003C050040F0ED00E0A00500401056004017
:1070B000E00F00F0E40F00F0E80F00F000C0004027
:1070C00058020010E40E004030010010340100109E
:1070D0003C17004000ED00E000E001400400FA052C
:1070E0008C2200200090D003C30710B507D4F023F2
:1070F000054A4008145C23401943115410BD09018E
:10710000C9B20F23F4E700BF5829002030B5094B5E
:107110001C78094B196800239C4202DC00221046AF
:1071200030BD11F83350854201EBC302F7D0013373
:10713000F2E700BF242900206829002013B5044687
:107140000191FFF7E3FF38B143682BB10199204665
:1071500002B0BDE81040184702B010BD034B044810
:1071600019680022490800F02ABA00BF2829002027
:107170003029002010B5C0B2FFF7C8FF04460078E0
:1071800002F0BCFE63785A1E53425341834208D139
:10719000044BD3E90023134303D1BDE81040FFF7AC
:1071A000DDBF10BD5029002037B54308354AD35CF8
:1071B000C2074CBF1B0903F00F0304460D46042B06
:1071C00035D8DFE803F003252C383C0079B30121E2
:1071D000FFF78AFF00230DF107008DF8073000F05C
:1071E000E1FA0120A4F12003C4F12001264A20FA8B
:1071F00001F100FA03F30B43A040D2E90041204320
:107200000B43C2E900039DF8070000F0EFFA0EE01F
:10721000002918BF02212046FFF766FF07E041B1B1
:107220000321FFF761FF01212046FFF787FF03B02D
:1072300030BD0121EFE70029F9D10421EBE709B1C5
:107240000321E8E7FFF750FF29462046FFF776FFC6
:107250000DF107008DF8075000F0A4FA0120A4F109
:107260002003C4F12001084A20FA01F100FA03F3D7
:107270000B43A040D2E9004124EA000021EA0303C5
:10728000BFE700BF58290020502900202DE9F04118
:10729000124E134F00243378A34208DC114BD3E97C
:1072A0000023134318D0BDE8F041FFF757BF3D68F6
:1072B00005EBC40815F8340002F020FE98F8013000
:1072C0005A1E53425341181A4142414115F83400A5
:1072D000FFF76AFF0134DEE7BDE8F08124290020D2
:1072E0006829002050290020092AF7B505460C46D8
:1072F00016463CD902F042FDD8B11E4B1E481D6017
:107300001E4B1F4F1C701F4B002110221E6008F0E7
:10731000C7FF1D4B00200021C3E90001013CE4B27E
:107320000326FF2C0BD1194A1948002100F03CF923
:1073300003E002F0EBFC0028DFD003B0F0BD9DF8C5
:10734000063015F834008DF8046005EBC40223F014
:1073500007038DF8063001A993788DF805303A4679
:1073600002F016FD013CE4B20028DAD0E5E7072080
:10737000E3E700BF682900205829002024290020C5
:107380007571020028290020502900208D7202000A
:107390000C07030070B5084D084E00242B789C4262
:1073A00001D3002070BD3368012113F8340002F0CE
:1073B00061FD0134F2E700BF242900206829002084
:1073C0001FB50021039001AA44F20100CDE901118B
:1073D00000F004F805B05DF804FB000010B572B6CB
:1073E000FFF746FBFFF78CF90028FBD1104B114C3F
:1073F0001149E41AE408240444F00100FFF7DCFA20
:107400000E4B1B68DB0700D500BE0D4944F002009F
:10741000FFF7D2FABFF34F8F0A490B4BCA6802F449
:10742000E0621343CB60BFF34F8F00BFFDE700BFA7
:107430005C2C0300842C030010070300F0ED00E037
:107440001C07030000ED00E00400FA05D0E9022368
:10745000D1E90201994208BF90422CBF01200020CF
:107460007047000008B50B4800F0FFFA0A4B0B49C3
:10747000D3E900231218D1E9000143F100038B4244
:1074800008BF824203D212F1807243F1000310461A
:10749000194608BD9022002070290020E82900200C
:1074A00037B505460C460A4801A901F0AEFA60B1AD
:1074B0000570446001A9064801F0D1FA18B10548E9
:1074C00000F0D8FA002003B030BD0420FBE700BF75
:1074D000D42900209022002038B5184B1B78044690
:1074E00013B90025284638BD0028FAD0037F03F0E1
:1074F000FF05002BF5D0FFF7B5FFD4E90223994231
:1075000008BF904214D3236903B92377D4E9053027
:10751000984721690029E4D0237F03F0FF05002B61
:10752000DFD0D4E90223521843F10003C4E9022357
:107530000348214602F017FAD4E700BF782900205B
:107540003807030013B5114B11491868019008233F
:107550001048582201F024FA044698B90E4A0F4800
:1075600001A900F067F9044660B90C48012100F058
:107570005DFA01230A4A0948194600F0B9F9094B96
:1075800001221A70204602B010BD00BF340703006C
:107590007C290020D42900200976020090220020B6
:1075A000FFFF7F00782900203AB103685A614A1E24
:1075B000514251411961002070470720704738B58A
:1075C000037F04460D4683B98261FFF74BFF2369B1
:1075D000401941F10001C4E9020103B125612146CE
:1075E0000020BDE83840FFF75BBF002038BD002316
:1075F000014603770120FFF753BF0000014800F068
:1076000034BA00BF902200202DE9F04F85B08046AB
:1076100000F015FA40B15B4AD2E9003113F18073F2
:1076200041F10001C2E900310021404600F017FAA3
:1076300038B1554E336823B13068FFF74DFF002352
:1076400033600121404600F00AFA20B1FFF70AFF3B
:107650004E4BC3E900014E484B4F4E4EDFF83C9174
:1076600003A901F00CFA002845D1DFF82891464E15
:10767000DFF82CA1484602F08CF93368002876D058
:107680007BB13368D0E90201D3E90223994208BFF4
:1076900090422DD233681B7F1BB13168484602F0FF
:1076A00062F9484602F06FF9D0E902B30746019348
:1076B000FFF7D8FE019BBBEB000463EB0105012C37
:1076C00075F1000346DBB4F5350F41D3FFF796FFA4
:1076D000314A02444FF496030021504600F02CF941
:1076E00000283FD1336813B9404600F0F9F83760FD
:1076F00005B0BDE8F08F0378012B1ED0022B09D115
:107700004FF0000A304602F03EF9002835D080F8EC
:107710001CA0F7E743B943681A7F2AB901221A77F8
:107720004168304602F01FF903A9194801F0D2F967
:1077300003A9174801F0A3F995E741683B6899420E
:1077400002D100233B60EFE7304602F025F9EBE77A
:10775000BA68BFE70021504600F076F93846FFF7D7
:10776000BBFE01E00D28F9D00023336082E7002B37
:10777000BED1404600F0B8F8BAE7012389F80030DE
:10778000D2E700BF70290020F0290020E82900205E
:10779000D429002038070300FFFFB4007829002017
:1077A0009022002070B5EFF3108672B60C4A9468F0
:1077B00001239CB993600B4B0B4DD3F880102940EB
:1077C0001160C3F88050D3F8841051604FF0FF323D
:1077D000C3F88420047006B962B670BD0370FAE77E
:1077E0001436002000E100E0FC06FFBD10B5084B98
:1077F0009A685AB150B9EFF3108172B6054A1C6805
:1078000014605C685460986001B962B610BD00BF36
:107810001436002000E100E0435882B03BB1002361
:10782000435043580193019B012002B07047184612
:10783000FBE7000070B5224C437944F82320214C2B
:10784000214A121B214C04EBC303D2081B791204FA
:1078500033B142F002001E49FFF7AEF8082070BDB8
:1078600003680D88C3F8085590F904308978002B17
:107870004FEA4111AFBF03F16043164D03F00F0310
:10788000C9B2A9BF03F56143E954C9B283F8001333
:1078900090F90430104D01215E0903F01F0301FA35
:1078A00003F345F82630437904EBC30544F833006D
:1078B000297142F003000949FFF77EF80020CEE766
:1078C000FC2900205C2C0300942C0300F4290020E8
:1078D0004407030014ED00E000E100E06607030048
:1078E000036801221A607047036801225A607047DA
:1078F000F7B504684FF480358D40C4F80853046828
:10790000C4F8485301F15004A4000668A4B200274B
:10791000375134590194019C046801F5A87122F093
:107920007F4244F821200268C2F8445313B103682F
:10793000C3F8045303B0F0BD2DE9F34799464FF463
:107940008038036808FA01F8C3F848830368C3F86D
:10795000088322F07F4502680E46D2F8041502EB38
:10796000860206F15007D2F84035C2F84015BF0034
:107970000268BFB24FF0000A42F807A05B1AD25962
:10798000009223F07F43012B009A04460BD1264B33
:107990004FF4806043F001039847236843F807A041
:1079A000DB590193019B2368D3F80475C3F8448322
:1079B000EB1B23F07F43012B06F5A876236819D132
:1079C000013543F82650184B4FF4806043F0010313
:1079D00098472368D3F804359F4209D12368C3F838
:1079E000448323680020C3F8048302B0BDE8F08715
:1079F0000D20FAE743F826502068D0F804156A1ADB
:107A0000013AC9F1FF1322F07F4203F57F4393420D
:107A1000EED3002AE2D1013540F826502368D3F88E
:107A200004359942D9E700BF8007030002680223AA
:107A3000C2F8443311B10268C2F8043370470068D9
:107A40004FF48271FFF7E8BE4FF4803303FA01F17F
:107A50000368C3F848130368C3F80813704750312C
:107A60008900006889B2FFF7D7BE0368D3F8040520
:107A70007047000090F9043001215A0903F01F03F8
:107A800001FA03F34032024941F82230704700BF47
:107A900000E100E0024B034A1B681068184700BF72
:107AA000FC290020F429002070B5064D064600246C
:107AB00055F8043B0BB1304698470134042CF7D1FC
:107AC00070BD00BF0C2A0020033080B240F2FE33AC
:107AD000984230B51FD8134B1A783AB91C895D8982
:107AE0002C440444A4B2B4F5806F0AD91A7DAAB913
:107AF0009A8BDC8B2244024492B2B2F5806F0DD88F
:107B000001220A801446142202FB04335A891044CD
:107B10005881002030BD48F20860FBE748F206605B
:107B2000F8E700BF402A00200B4A0C4B5188142074
:107B300000FB0131CB6833B9042049681070012281
:107B4000074801F08DBB07490523137002238B8082
:107B5000012209680023F3E7242A0020402A00209C
:107B600020230020082B002007B50023054900939F
:107B7000054A09680548082301F0DCFA03B05DF8FE
:107B800004FB00BF082B00209407030020230020E3
:107B900007B5002301460093034A0448082301F077
:107BA000C9FA03B05DF804FB8C0703002023002012
:107BB00013B500230C4600930146084A08480423E5
:107BC00001F0B8FA38B90749142303FB0414012360
:107BD000237402B010BD48F20D60FAE78807030075
:107BE00020230020402A002037B50A480A4B42686B
:107BF0009C88196853880325033305709BB20020C5
:107C000000909B0001EB8401044801F093FA03B05B
:107C100030BD00BF242A0020082B00202023002094
:107C200010B50146044800F0F0FE1C220446002175
:107C300008F036FB204610BDF42A002068B1026827
:107C4000084B9A4209D14068074B984207D001334C
:107C5000984214BF03200120704703207047002082
:107C6000704700BFDEC0ADDEFE011EF14388033366
:107C700000EB830399420BD382884FF6FF739A423D
:107C800008D0038833B18068431C5842584170477C
:107C900002207047012070472DE9F0410D46022374
:107CA000154F2B80164600F5805100F108044FF067
:107CB00001088C420ED2236801330BD02046FFF717
:107CC000D5FF48B10EB186F80080022809D14FF4E3
:107CD00080632B80BDE8F081A3683A68934200D9A5
:107CE0003B602B886288033313442B806388033303
:107CF00004EB8304DDE700BF382A002038B5144BBD
:107D000014220D4602FB00302B68446804F58051B4
:107D1000A3B15C88033403EB84048C4215D223683E
:107D2000013312D02046FFF7A1FF012808D0022816
:107D30000BD00028F1D12C60012038BD0834ECE7CD
:107D40006388033304EB8304E7E70020F5E700BF13
:107D5000402A002073B5426804460D466AB3244B9E
:107D6000D9688A4229D31B699A4226D812F00303A4
:107D700023D120490089098988421ED12068916851
:107D800088421AD11C494868824203D900F58050C4
:107D900082420DD389698A420CD901F580518A4209
:107DA00008D201222A80B3FA83F0400902B070BDE4
:107DB0001A46F7E748F20963F5E700232B801E46D1
:107DC0000196288801A9FFF799FF30B92B88013364
:107DD0009BB2012B2B80F3D9E8E7019B22689968BD
:107DE0009142EED16360034B1B892381DEE700BF24
:107DF00020230020242A0020402A00202DE9F843D7
:107E00001C461F4B1B7806460F461546002B31D0EB
:107E1000002A32D0002C30D0DFF86C804FF01409EB
:107E2000A388012B02D948F2096021E009FB03F382
:107E300018F803302BB9A0882146FFF75FFF20B95F
:107E40002060A3880133A380EAE723681EB19988E4
:107E500032889142EFD11FB119883A889142EAD114
:107E60009B682B6023686B60064B1B892B8100206D
:107E7000BDE8F88348F20160FAE748F20460F7E7EA
:107E80001C2A0020242A0020402A002008B5074B85
:107E90005888191DFFF732FF18B1BDE80840FFF7F9
:107EA000A3BEBDE80840FFF73FBE00BF242A002064
:107EB0002DE9F04FA44FDFF8B49289B00646B846DA
:107EC0003B6823B9A148494600F0D9FD3860D8F88D
:107ED000005029784B1E052B07D8DFE813F022004D
:107EE0007C007C000F010F01660148F20E64142231
:107EF000002103A808F0D4F941F61D539C4208BFA5
:107F00000024D8F8003004941A78013A052A00F2C7
:107F1000F681DFE812F0E201E60106021602220213
:107F20002C022EB18A4B00225A604FF40644DEE741
:107F30002B79032B1DD8DFE803F015022B3685497A
:107F40000B78022B08461AD00B7D022B4FF0010351
:107F500017D114225343C2180020C8545068FFF7A9
:107F600017FE03E001232B71FFF7FEFD002800F050
:107F7000BF80774B00225A6048F20D64B7E70023B8
:107F8000E7E7734A13700023536041F61D54AEE7D0
:107F900071497248002302222B718A8009680122EC
:107FA00001F05EF9E2E76C4C00262E712068694D05
:107FB000FFF7EEFD6A4BD4F800C05A8814235343F0
:107FC000EA18EE5451682160A188C2F804C01181FA
:107FD0000222A280CAE7B5F814A0AA7DDFF874B126
:107FE0001423AEB1022A06D903FB0AB3EA88198921
:107FF00003320A441A81142303FB0ABAEB88BAF845
:108000000A20C3F57F43FD331344AAF80A308CE7F6
:1080100003FB0AB318895C6804EB8004062A6AD85B
:10802000DFE802F0284F37451E5B040041F61D547F
:10803000AB7D022B07D9142202FB0AB2EB8811890F
:1080400003330B441381142303FB0ABAEB88BAF8F9
:108050000A20C3F57F43FD331344AAF80A3046E7EC
:108060004048414900234360AB690360FFF772FE5B
:1080700000285BD00223AB75002300930423EA1889
:108080002146364801F056F8002831D048F20D64F8
:10809000CEE72B69002B14BF03230123AB7500230C
:1080A000009305F10C02042304F10801E9E7012320
:1080B000AB750022EB8800922A699B0004F10C0149
:1080C000DFE703290CBF05230623AB7500230093CC
:1080D000042305F10802E118D3E70623AB75224B10
:1080E0001988204B5868FFF763FD044600289FD18C
:1080F00009B0BDE8F08F48F20E6499E7002E7FF4D6
:1081000014AF2B79012B33D0022B3FF43EAF002B61
:108110007FF4EBAE02232B71CDE904660DF10A0169
:10812000EB68039303A8FFF715FE10B948F2096442
:10813000DDE60498BDF80A108388EB8003882B8164
:10814000FFF736FD044626E03C2A0020F42A0020F2
:108150001C2A0020402A0020082B00202023002079
:10816000242A0020002A0020142B0020342A00207A
:10817000804B03AA3146A81DFFF740FE7D4B044605
:1081800068B999880498FFF713FD044648F209631B
:108190009C423FF4FAAE002C7FF4A9AEA8E7082277
:1081A0003146184608F07CF8F0E7002E7FF4BDAEAB
:1081B000714B1A7BB2B11E731A78013A062A3FF648
:1081C00094AE01A151F822F06F8202009582020064
:1081D000B3820200B9820200EB7E0200BF8202007D
:1081E000D18202001A78072AE6D801A151F822F0BC
:1081F00011820200B9810200B981020037820200B7
:108200004B8202006B8202006B820200338202000A
:108210001A895A4901321A8100225A801A730A783F
:10822000B2FA82F252099A720A7DB2FA82F25209C5
:10823000DA72012207E0524958688A88408803327E
:1082400002448A8002221A70B6E74C4C5A884C4984
:10825000142505FB02420868546850608888108124
:1082600002228A800C600622EDE70722EBE79A7A69
:1082700032B9DA7A8AB900221A705A805A6084E6D2
:108280003E4900229A72CA68002AF2D1097C00296C
:10829000EFD05A80FFF7FAFD54E70022DA72374A2E
:1082A000116A0029E7D192F82420002AE3D00122A4
:1082B000EFE7FFF799FC45E7FFF736FC42E72F4A67
:1082C0005B88142101FB03235868FFF761FC39E741
:1082D00000225A60FFF748FC34E700238DF80C3089
:1082E0000DE001228DF80C201A89ADF818209A882B
:1082F000ADF81A20DB68059300238DF81C3003A825
:10830000FFF7D2FB002649461E48C8F8006000F07F
:10831000E1FB1D48012100F097FC00287FF4D0AD5F
:10832000E6E602228DF80C201A89ADF818209A880A
:10833000ADF81A20DA6805929B7D9A1F534253418B
:10834000DBE703228DF80C20DA88ADF818201A89B3
:10835000ADF81A20DB680593D1E704228DF80C20D4
:10836000DB88ADF818300023ADF81A30F3E70523A9
:10837000B4E700BF182B0020242A0020402A002048
:10838000082B0020F42A0020042B00204068FFF76F
:108390008FBD000008B50548012100F03DFC18B96B
:1083A000BDE80840FFF784BD08BD00BF042B0020D6
:1083B0002DE9F3419846364B1B7806460D46002BB7
:1083C0005AD000295BD009884FF6FF73994259D0E3
:1083D0006B88002B56D06B689B0756D14AB92F8902
:1083E0000DF102013846FFF76FFB30B102B0BDE876
:1083F000F08113885788ADF8023001A8FFF710FC10
:10840000044660B9BDF80230224A142101FB03235F
:1084100058890338C01B588148F20760E6E780F8A6
:10842000008000238375BDF8023083826B6803618E
:108430000121194800F0FCFBE0602B8823816B8848
:10844000A380B8F1030F04BF0423A375E78004BF22
:108450003368A36100251148658101A900F0FFFA86
:1084600036B17560E36833600D4BB5721B8933819B
:10847000FFF790FF0020B9E748F20160B6E748F245
:108480000460B3E748F20360B0E748F20260ADE78A
:108490001C2A0020402A0020382A0020F42A00202C
:1084A000242A002008B5034607480268042A08D099
:1084B0000168064A42F82130012100F0B9FB002092
:1084C00008BD48F20B60FBE7102B00200C2A0020AF
:1084D0002DE9F04F89B01422002103A807F0E0FE37
:1084E000794A137803F0FF01009190463BB103A84D
:1084F000FFF7DAFA0027384609B0BDE8F08F101D03
:1085000000F0AEFB0028F5D140F6F8734FF0805232
:108510001B685C1C08BF6D4B6D4C08BF1B68116964
:108520005269581C08BF02FB01F323616949A3F596
:10853000405300222046E36000F0CAFD0194074644
:108540000028D8D164496548DFF8A4B11C238C22E7
:1085500000F026FABA463D464FF003093C46019B1F
:10856000DE6856443046FFF769FB012862D00328D5
:1085700017D000283DD15A494FF0140C0CFB04FCD5
:1085800001EB0C0201F80C0056600CF110020CF12A
:10859000080C0A4430466144FFF77EFB45F00205B3
:1085A00045E03268531C02D04E4B9A4234D1321D02
:1085B00006F58051106801302ED104329142F9D174
:1085C000DBF800203AB902220123CBF80060ABF8B7
:1085D000042000930BE014226243414B02209918BF
:1085E0009854414A4E60548001340881A4B245F049
:1085F00001050AF5805ABAF5405FB0D1B9F1010F13
:1086000098BF0025EDB2022D03D0062D31D0002DEC
:1086100039D148F20A676EE731491422624388185B
:1086200009F1FF394660032088541FFA89F90134A3
:10863000A4B2DEE7009B6BB1294B14226243991868
:1086400002209854DBF800204A60274A08815480B1
:108650000134A4B200222549CBF800603046FFF770
:108660001BFBBBF80420022A0CBF0422082215437E
:10867000BFE7012388F8003003A80023C8F80430BE
:10868000FFF712FA37E702A8FFF7CAFAC8B10123C9
:10869000013D03700A2D09D8DFE805F00608060839
:1086A000070807080F110F000023037102A90B48E8
:1086B00000F0D5F9FFF76EFE1DE70323F5E702236F
:1086C000F3E748F2076716E71C2A00201410001091
:1086D0002023002088090300682A0020F42A0020B3
:1086E000402A0020DEC0ADDE242A00200C2B002012
:1086F000082B002073B50D460446C8B1C1B10DF179
:108700000601FFF727FBB0B10C4BBDF80600666809
:10871000142202FB003001210C3000F089FA2E6097
:1087200063680C336B600123A372002002B070BD3C
:1087300048F20460FAE748F20960F7E7402A0020AF
:1087400013B50446A8B10DF10601FFF703FB98B17C
:108750000C4ABDF80630142101FB0323DA6872B11C
:10876000A27A62B1DA680020013ADA60A07202B03F
:1087700010BD48F20460FAE748F20960F7E748F2F2
:108780000560F4E7402A002002230022FFF710BE14
:1087900018B103230022FFF70BBE48F204607047B4
:1087A00013B5114B1B780446ABB14FF6FF739842DB
:1087B00014D001A8FFF734FA98B105230370012300
:1087C0000371C48001A9094800F049F9FFF7E2FDEF
:1087D000002002B010BD48F20160FAE748F20360E1
:1087E000F7E748F20760F4E71C2A0020F42A00208B
:1087F00007B50F4B1B78A3B101A8FFF711FA98B189
:108800000623037001A90B4800F029F90A4B1A78D6
:108810000AB101221A73FFF7BDFD002003B05DF815
:1088200004FB48F20160F9E748F20760F6E700BF91
:108830001C2A0020F42A0020242A002007B5ADF8C5
:108840000600ADF804100DF1060001A9FFF7D6FAF5
:1088500003B05DF804FB07B51346ADF806000A4601
:1088600000200DF10601FFF7C9FA03B05DF804FB23
:1088700007B51346ADF806000A460DF106000021C3
:10888000FFF7BCFA03B05DF804FB20B119B103682F
:108890000B600020704748F2046070472DE9F047F4
:1088A0003D4B1B780446002B6FD0002870D0DFF8BA
:1088B000EC901222002107F0F3FC032323804FF0F9
:1088C000000A4F4614264FF00108B9F80A30B9F8EB
:1088D0000810D9F80400194489B2FFF7AFF903284A
:1088E00008BF2388628804BF03F1FF33238006FB9F
:1088F0000A73DB6813446380B9F80A2023891344A0
:10890000238163890B446381C1F58061A38989B2A6
:108910008B4238BFA181D9F8041001F1080501F597
:108920008051A94229D92B68013326D02846FFF768
:108930009DF901280AD0022815D00028F1D1A3887A
:108940000133A3800AE04FF0010ABEE7E388013358
:10895000E380E3896A8803331344E3816B8803333C
:1089600005EB8305DDE7E38884F810800133E380BD
:10897000E389491B03EBA101E18109F11409BAF173
:10898000000FE0D00020BDE8F08748F20160FAE770
:1089900048F20460F7E700BF1C2A0020402A0020AC
:1089A00010B561B1B2FBF3F403FB1424A4B244B9D3
:1089B000C0E9001484608281C381204610BD0E206E
:1089C000FCE70920FAE782B050E8022FC188B2EB39
:1089D000324F4FF0000317BF92B241EA014142EA21
:1089E000014104E04268B2EB324F08BF012340E886
:1089F0000212002AE8D18DF807309DF80730002BCD
:108A00000CBF1120002002B0704737B550E8013F7D
:108A10009DB2C48925448489A54228BF2D1B0489A1
:108A2000A54202BFBFF32F8F002207E0C5EA03056E
:108A300040E80154002CE9D14FF001028DF80320E9
:108A40000193019B9DF803200B6002F0FF0322B10C
:108A50000B880068184403B030BD1846FBE70A884D
:108A60004B889A4209D150E8012FC2EA024240E8FD
:108A70000123002BF7D1012070470020704737B544
:108A800050E8023F1FFAA3F5C488A54202BFBFF316
:108A90002F8F00220DE0C48925448489A54228BF78
:108AA0002D1BC3EA054540E80254002CE8D14FF0E5
:108AB00001028DF803200193019B9DF803200B60B8
:108AC00002F0FF0322B14B880068184403B030BDA8
:108AD0001846FBE70A884B889A4209D150E8022FD2
:108AE000C2EA224240E80223002BF7D1012070475E
:108AF0000020704701F01F024B090121914000EB5B
:108B0000830000F065B84B0910B501F01F04012186
:108B1000A14000EB830000F04FF8E04000F00100BE
:108B200010BD01F01F0301229A404B0900EB8300A6
:108B3000D14300F065B84B0901F01F0150F8230044
:108B4000C84000F0010070472DE9F0474F1E7F0933
:108B500080460E460137002558F8254008EB850968
:108B6000E44394FAA4F4B4FA84F44FEA451A202CAE
:108B700006D10135AF42EFD834462046BDE8F08734
:108B80005444A642F5D921464046FFF7BCFF0028D1
:108B9000F3D0D9F80040E44394FAA4F4B4FA84F48E
:108BA000E5E710B5034653E8000F0A4643E8002402
:108BB00094F0000FF7D110BD10B5034653E8000F35
:108BC00040EA010243E8002494F0000FF6D110BD02
:108BD00010B5034653E8002F42EA010043E80004C1
:108BE00094F0000FF6D110BD10B5034653E8000F06
:108BF00000EA010243E8002494F0000FF6D110BD12
:108C000010B5034653E8002F02EA010043E80004D0
:108C100094F0000FF6D110BD10B5034653E8000FD5
:108C200000EB010243E8002494F0000FF6D110BDE0
:108C300010B5034653E8002F02EB010043E800049F
:108C400094F0000FF6D110BD10B5034653E8002F85
:108C5000A2EB010043E8000494F0000FF6D110BD30
:108C60000121FFF7A9BF0121FFF7B2BF0021FFF7E4
:108C7000BBBF10B590B1D0E9012301689B1ADBB2EC
:108C80000A60013BDBB2FF2B026802D100201071A9
:108C900010BD11684C1C14600B70F2E70E20F7E752
:108CA00037B5044600250DF107008DF80750FEF793
:108CB00079FD2268616813688B4210D9591E1160D2
:108CC00013F8015C228AE36802FB05352268A36879
:108CD00011685B1A1179DBB2994238BF13719DF8A4
:108CE0000700FEF783FD284603B030BD37B50546C3
:108CF00000230DF107000C468DF80730FEF752FDFA
:108D00002A681368591C1160E968641A298AB4FB3F
:108D1000F1F41C709DF80700FEF768FD03B030BD4C
:108D200010B5826804462AB1436901680069984712
:108D30000023A36010BD0EB403B5039921B104ABA9
:108D400001AA019300F076F802B05DF804EB03B0DD
:108D500070470A2938B504460D4602D10D21FFF7A8
:108D6000F8FFA3682268591CA160D554D4E90132E8
:108D70009A4204D32046BDE83840FFF7D1BF38BD42
:108D80002DE9F84F9846DDE90A43154682460F461D
:108D90000A464FF00109AA420FD2C14538BFC14669
:108DA00013F0010B01D16CB900240126B8F1010FB9
:108DB0001BD908F1FF386E43F8E709F10109B2FB4E
:108DC000F5F2E8E79B070ED5B8F1000F0CBF30268F
:108DD0002026A145E9D2013C31465046FFF7B9FFB4
:108DE000002CF6D1E0E72026F3E7B7FBF6F39D422F
:108DF000E1D9DFF83C80B7FBF6F3504618F80310D2
:108E000006FB1377FFF7A5FF3346AB42B6FBF5F63B
:108E1000F1D2BBF1000F02D00CB1A14501D3BDE8E6
:108E2000F88F20215046013CFFF793FFF4E700BF85
:108E30009C0703002DE9F74F054617468846002991
:108E400000F0428118F8011B49B92B7B002B00F080
:108E50003B81284603B0BDE8F04FFFF761BF2529ED
:108E600040F0B780002698F800302D2B424608F1DC
:108E7000010823D0302B24D02B2B25D000242A2BE3
:108E800002F1010123D13B681A1D3A601B680A46B2
:108E90001C4413782E2B26D101324FF0000A1046C5
:108EA00010F8011BA1F1300CBCF1090F1DD80A23E9
:108EB00003FB0A13A3F1300A0246F0E746F001066D
:108EC000D1E746F00206CEE746F00406CBE711F8FC
:108ED000013CA3F130000928DBD80A2202FB04344C
:108EE000303C0A46CBE74FF0000A12F8011B01F0B4
:108EF000FB0068289046F8D0782909D86F290CD84B
:108F0000632962D022D8252963D0582900F08880AF
:108F100098F80030002B95D197E770390829F7D8D9
:108F200001A353F821F000BFA3900200118F0200AB
:108F3000118F020031900200118F02000F90020089
:108F4000118F0200118F020021900200642901D0CC
:108F50006929DDD13A68111D3960D2F8009089EA9B
:108F6000E972A2EBE9724FF0010B092A35DCD34517
:108F700038BFD3462CB1B9F1000F01DB720700D521
:108F8000013CB30702D5BAF1000F03D0F00701D4BA
:108F90004CBB0024B9F1000F2DDAC9F100092D21D5
:108FA0002846FFF7D6FE06F00302022A04D1BAF1E2
:108FB000000F01D11CBB0024CDE9004653460A2214
:108FC00049462846FFF7DCFEA2E73B681A1D3A60D7
:108FD00019782846FFF7BDFE9AE70A230BF1010B2B
:108FE000B2FBF3F2C1E7A345D4D220212846013CCD
:108FF000FFF7AFFECCE77107D5D52B21D0E7A3450E
:10900000DAD230212846013CFFF7A3FED2E73968C7
:10901000CDE900460A1D3A6053460A220968D0E7A6
:1090200039680A1D3A60CDE9004653461022F5E73B
:109030003B681A1D3A6016F00106D3F8009028D15B
:10904000B9F1000F03D0484607F032F90646B442A2
:1090500000D904BB09F1FF3919F8011F00293FF4B9
:1090600057AF2846FFF775FEF6E728460136FFF7AB
:1090700070FE19F806100029F7D1A642BFF448AFD8
:10908000002C3FF445AF20212846013CFFF761FE4C
:10909000F3E70026EDE720212846013CFFF759FEC3
:1090A000D5E73B681A1D3A60302128461C68FFF757
:1090B00050FE78212846FFF74CFE00220823CDE918
:1090C0000032214610227CE703B0BDE8F08F00BFDC
:1090D00013B50B46114680B9104B1148114AC01AFE
:1090E0000E23C0080093104B0004104940F001000B
:1090F000FDF779FC0E2002B010BD4BB9074B0848B4
:109100000B4AC01AC0080E2300930004064BECE77C
:1091100003601B6802B0BDE8104018475C2C0300D8
:10912000AC2C0300AC07030042090300B1070300A5
:10913000E00703002DE9F34188B93D4B3D483E4A25
:10914000C01AC0080E243D4B009400043C4940F076
:109150000100FDF748FC204602B0BDE8F0814AB9A5
:10916000334B3448374AC01AC0080E24334B00949E
:109170000004EBE7D0F800E0BEF1000F09D12C4B62
:109180002C48314AC01AC00808242C4B0094000413
:10919000DCE74BB9264B27482C4AC01AC0080924E3
:1091A000264B00940004D1E74568D5F80480B3FB52
:1091B000F8F508FB15354DB11D4B1E48244AC01A61
:1091C000C00809241D4B00940004BFE78D0709D097
:1091D000174B18481F4AC01AC0081024174B009498
:1091E0000004B3E712F0030F09D0114B11481A4ADB
:1091F000C01AC0081024114B00940004A6E7C568EB
:10920000A9420BD34D1EEC180569AC4206D8DEF816
:109210000C40A44602B0BDE8F0416047044B05484D
:109220000E4AC01AC0081024044B009400048DE7B5
:109230005C2C0300AC2C0300AC07030054090300B2
:10924000B10703002E080300DA070300ED0703004F
:10925000340803005E080300760803009908030041
:10926000F7B580B92A4B2B482B4AC01AC0080E24E8
:109270002A4B009400042A4940F00100FDF7B3FB9B
:10928000204603B0F0BDD0F800C0BCF1000F09D1FA
:109290001F4B2048234AC01AC00808241F4B0094C3
:1092A0000004E8E74AB91A4B1A481F4AC01AC00816
:1092B00009241A4B00940004DDE74768D7F800E062
:1092C0000EF1FF370F4209D0114B1248174AC01A4E
:1092D000C0081024114B00940004CCE7C768B942C1
:1092E0000CD304694D1E0EFB0255A54206D8DCF8CE
:1092F0001040A44603B0BDE8F0406047044B054869
:109300000B4AC01AC0081024044B00940004B2E7B2
:109310005C2C0300AC2C0300AC07030067090300BE
:10932000B1070300DA070300ED070300C0080300DC
:10933000E608030029DF704728DF704770B506682C
:10934000B36886B004460D4673B114220021684606
:1093500006F0A6FFA36805932379019533B1012B8D
:109360000ED0B3686846984706B070BD01238DF8EB
:10937000003023690293E368039363690493F0E781
:1093800002238DF80030E3681B030293F5E70846DB
:109390007047002070470000024B187A003818BF51
:1093A00001207047BC2B0020034B187A0122B0FA31
:1093B00080F05A7440097047BC2B002008B5104655
:1093C0001A4606F05FFF002008BD000008B5142211
:1093D0000021044806F064FF0348FFF7F4FA002078
:1093E00008BD00BFBC2B0020AC2B002010B5094CE1
:1093F000094B43602046FFF733FC40B906F094FD6B
:10940000064920741C2306488C22FFF7C9FA002065
:1094100010BD00BFBC2B00207C090300202B0020C6
:10942000AC2B002070B5244C244E237A25463BB942
:1094300023492448FFF723FB306008B9606070BD02
:10944000022334682B72237973B1012B24D0204678
:109450000321FFF773FF00232B726B60BDE87040A0
:1094600017491848FFF736BBD4E90523D21AB2F5DD
:10947000805FD4E9031028BF4FF480529208012A7C
:1094800038BF012219441844FFF754FF50B1112886
:10949000DDD101232B72D2E7D4E903031844FFF78F
:1094A0004BFFF3E72B7C002BC9D10146BDE8704090
:1094B000022000F009B800BFBC2B0020D42B0020F4
:1094C000D02B0020AC2B002038B5831E012B45D8B3
:1094D000234C237A002B41D0022B09D1032830D012
:1094E000204B00221B68E2601A793AB1012A22D08F
:1094F000637C7BBBBDE83840FFF794BFD3E905121E
:109500008D1AB5F5805F94BF521902F580529A61A9
:109510009142EDD102284FF0000308BF1946237293
:10952000104B18BF0D211868FFF708FF0E490F48B0
:10953000FFF7D0FADCE71A6901321A615B699A42D7
:10954000E7E7E3680133082B01D8E360D0E70023A5
:10955000E360DFE7BDE8384006F0D6BC38BD00BFA9
:10956000BC2B0020D42B0020D02B0020AC2B0020C3
:1095700000F0FD03012B08D1044B00225A74421E57
:10958000504250411874FFF74DBF7047BC2B00206C
:1095900010B5064C201DFFF763FB28B9637C1BB98F
:1095A000BDE81040FFF73EBF10BD00BFBC2B002040
:1095B0002DE9F34180460D460F4801A916461F4686
:1095C000FFF723FA0446A8B11C22002106F068FE2A
:1095D0002D0B0123237101A90748C4F80080A7605F
:1095E000E5606661FFF73BFAFFF7D2FF002002B0AB
:1095F000BDE8F0810420FAE7AC2B00202DE9F74309
:1096000081468846104801A917461E46FFF7FDF916
:109610000446B0B11C22002106F042FE00250A9B40
:10962000A36001A9C4E9037807482571C4F8009034
:109630006661FFF714FAFFF7ABFF284603B0BDE8F9
:10964000F0830420FAE700BFAC2B00202DE9F84F8F
:10965000B0F806A04579D2F800B09DF828900AFB32
:1096600005F5043D88460BEB0301A94203F1040410
:1096700088BFA5EB030BB4FBFAF607460AFB1644BA
:10968000C2F800B04EB9AAEB04055D4528BF5D469F
:10969000BBF1000F04D1BDE8F88F3F68013EF1E750
:1096A000043408EB06003C442A46B9F1000F0DD003
:1096B0002146ABEB050B06F0E5FDDA452E443F688D
:1096C00055464FF0000428BF5D46E1E701462046BD
:1096D000EFE7FFF7CEBAF8B546790146721E0546A8
:1096E000002393422D6803D30024A64202D8F8BD7C
:1096F0000133F6E70F682846FFF7F8FA01343946D8
:10970000F3E72DE9F843CD1C068A0746FFF7C8FAB0
:10971000043E35440446B5FBF6F5F0B14FF48073D2
:10972000EDB28380C680013D076081464FF000089E
:10973000A84512D23846FFF7B3FA064648B1637916
:109740000133637108F10108C9F800000760814620
:10975000EEE72046FFF7BFFF34462046BDE8F8831A
:1097600001210430FFF764BA10B50121044604302A
:10977000FFF76AFA10F0FF0F04D12046BDE8104051
:10978000FFF7A9BF10BD1FB503920022009203AAE4
:10979000FFF75CFF05B05DF804FB1FB503920122E3
:1097A000009203AAFFF752FF05B05DF804FB33DF18
:1097B000704741DF704700000D4A08B50023137061
:1097C0000C4A1360BFF35F8F0B490C4800F0B6F8EA
:1097D0000B4A0C480121FDF7E7FE024630B9BDE80F
:1097E000084009484FF48041FDF7E9BE08BD00BFBD
:1097F000082C00200C2C0020B8090300D82B0020D6
:109800000D990200B4090300E82B002007B50023DE
:109810000DF107008DF80730FDF7C4FFF1EE103AA7
:1098200023F09F03E1EE103ABFF35F8F094B402214
:10983000C3F884219DF80700FDF7D8FF06F074FBFC
:1098400020B1FFF7B6FF03B05DF804FB20BF40BFB7
:1098500020BFF8E700E100E070B5264D0446012185
:109860002846FFF79EF9BFF35F8F2E4638B9042CC8
:109870000AD0214B1A781AB1BFF35F8F286070BDF0
:109880001E4A147001221A701D4C1C4D6368BBB92E
:10989000FDF7EEF8FCF734FF0028FBD1174B1B78DF
:1098A000023B012B14D8BFF34F8F1649164BCA68E1
:1098B00002F4E0621343CB60BFF34F8F00BFFDE7BC
:1098C0001B682878984788B1204600F040F8DDE70B
:1098D00006F02AFB08B1FFF76AFF4FF08043012230
:1098E000C3F80025BFF34F8F20BFFDE7BFF35F8FA5
:1098F0003060C4E70C2C0020082C0020E02B002056
:10990000D82B002000ED00E00400FA05034B1B7883
:1099100013B10420FFF7A0BF704700BF082C002040
:109920008268002393608268136182685361826851
:10993000D3608268536082681360704701600B686F
:1099400043604A68934204BF002343607047436802
:1099500043B1026891680B4443605268934204BF6C
:1099600000234360704770B5446806460D46206882
:1099700018B1B3682946984718B923682B60256049
:1099800070BD2468F3E74368186808B102681A607C
:1099900070474368186870474368186800B9704793
:1099A000884203D102681A600120704703460068AC
:1099B000F4E7000010B50D49A1F59472914201D869
:1099C00000200FE08C1AE30F03EBE4035B1002EBC3
:1099D000C30452F83330834205D802D204F108029E
:1099E000ECE7606810BD2146E8E700BFC40E030045
:1099F00008B5FFF7DFFF024B002808BF184608BD77
:109A0000870D030038B5074C051E04F1080318BF85
:109A10001C4623682BB11A6822605B682846984769
:109A2000F7E738BD182C002020B9054B01225A70E9
:109A3000FFF7E8BF012802D1014A9070F8E77047AC
:109A4000102C002020B9034B01225A70FFF7DABF17
:109A5000704700BF102C002038B50B4C237883B919
:109A60000A486360A3602361E36000F0C9F805461B
:109A700006F05AFA08B900F0CFF8012323702846FF
:109A800038BD8525FBE700BF102C0020299A020075
:109A900037B50B4C00230DF107008DF80730FDF7AB
:109AA00081FEE368013BE360E56815B900F0C6F8A4
:109AB000A5709DF80700FDF799FE03B030BD00BF0B
:109AC000102C0020012813B508D003281CD018B989
:109AD000104B0122C3F8802002B010BD0E4C0023B1
:109AE0000DF107008DF80730FDF75CFE23780BB908
:109AF000FFF7B2FFE3689DF807000133E36001233D
:109B0000A370FDF773FEE7E700F086F8FFF7C0FFEC
:109B1000E2E700BF00E100E0102C00201FB5037851
:109B20008DF800304368019383688DF80830C3686E
:109B3000054A0393054B684653F8213052F821102B
:109B4000984705B05DF804FB242C0020282C002049
:109B50001FB503788DF800304368019383688DF852
:109B60000830C368054A0393054B684653F8213013
:109B700052F82110984705B05DF804FB242C002012
:109B8000282C0020F0B5194B90F800C091F81DE08A
:109B900043F82C20164B16460A6943F82C20154B27
:109BA00003F80CE00C4607460FCC89B06D460FC594
:109BB00094E80F0085E80F00CDF810C0BEF1000F4B
:109BC00009D0002E0C4A694608BF3246381D00F005
:109BD00087FD09B0F0BD002E084A694608BF32462D
:109BE00007F10C0000F066FBF3E700BF282C002013
:109BF000242C0020203600201D9B0200519B0200D7
:109C0000044A137923B901211060918018467047E6
:109C1000852070472C2C0020074B1A68D2075FBFA5
:109C2000C02283F8002301221A604FF080430122F2
:109C3000C3F81825704700BF00E100E0044B012283
:109C40001A604FF08042D2F81834DB03FBD470471F
:109C50000C00004007B5154B1A687AB100221A6053
:109C60001B680093009B4FF080430122C3F8082338
:109C70000F4B587910B95A711B6898470D4B1A68E9
:109C800082B100221A601B680193019B4FF0804350
:109C90000222C3F80823064B1B68012003B05DF8BD
:109CA00004EB184703B05DF804FB00BF000100405F
:109CB0002C2C00200401004000F1804000F5C04041
:109CC000002382B0036003680193019B02B07047D8
:109CD000800000F1A040D0F8002722F44032C0F804
:109CE0000027D0F8003743EA0141C0F80017704759
:109CF000054B4FF0FF32072843F8202084BFC018DF
:109D000080F84820704700BF342C002010B5174C55
:109D100094F8583043BB04F130032021FF2201396D
:109D200011F0FF0103F8012BF9D1C8B2FFF7E0FFF2
:109D300001310C29F9D1042200210D4806F0B0FAB6
:109D40000C4BC02283F8062340221A604FF4BE70E9
:109D5000FFF7B2FF084B4FF00042C3F80423012382
:109D600084F85830002010BD0820FCE7342C002077
:109D7000882C002000E100E000600040034B93F8D5
:109D80005800003818BF0120704700BF342C002055
:109D9000F0B5364D2C1894F93040002C64DA8C78EC
:109DA000C4F34004002C0BBF082300230C26082614
:109DB000B34201D10420F0BD55F8237001373FD1E3
:109DC0002E1845F8232086F8303014B9EA1882F8A6
:109DD00048008A78540713D4D60733D5820002F19D
:109DE000A042D2F8004724F00204C2F80047204EF7
:109DF000C20800F007070124BC40B75C3C43B454E0
:109E00008A780C7812F0020225D09B0003F180437F
:109E100003F5C0430202D3F8101521F4473121F4B1
:109E20004071C3F810152404D3F8101502F4F85249
:109E300004F4403422430A43C3F810250020BAE753
:109E40000133B5E74C7800F5E0724FF0A046A4006E
:109E500046F82240CBE7083B2B4493F8501041EAE8
:109E6000841483F85040E9E70820A4E7342C00204C
:109E7000882C002038B51F4C251895F93020072A6A
:109E800016DD224492F848309B09032B0BD14FF08A
:109E9000A043D3F81015C14001F001010231BDE823
:109EA0003840FFF715BF012B0CBF02210321F6E755
:109EB000D3B2072B1CD8930003F1804303F5C043B2
:109EC000D3F8100540F00100C3F8100502F140007E
:109ED000800080B2FFF7F0FE51B195F9303054F8B0
:109EE00023302BB1012303FA02F2034BC3F80423FE
:109EF00038BD00BF342C0020006000404FF0A0436C
:109F0000D3F8103523FA00F000F00100704700008C
:109F10002DE9F04F87B000245A4D03944FF480721E
:109F2000012102F1804303F5C04390B21B68012B6D
:109F300006D1D5F804330B4202D0FFF7BDFE0C4327
:109F40000432B2F5907F4FEA4101EAD14E4B1B68D3
:109F5000012B0AD14FF4BE70FFF7AEFE4FF0A043C5
:109F600044F00044D3F81035039314F0FF0F1AD0D7
:109F7000464F00250126344210D0AB0003F1804348
:109F800003F5C043D3F81005D3F8101557F8253062
:109F900023B1C1F30141C0F3042098470135082DD6
:109FA0004FEA4606E7D1002C65DA00214FF0FF3377
:109FB000CDE90413354D01274FF0000A344ED14648
:109FC0004FF0A04816F9013B5A1C45D0C3F3C2011B
:109FD00006AA5018DCB210F8042C03F03F0B03F073
:109FE000070307FA03F31A4236D005EB0B02A40964
:109FF00092F9302055F8222052B9032C2CD10DF1C2
:10A00000100E1EF801C04CEA030C0EF801C001E06E
:10A01000032CF4D00BF5E07110F80C0C58F821105B
:10A020001842C1F3014105D0022915D1032C0FD1EB
:10A03000214604E003290FD1032C09D102215846FF
:10A04000019209F10109FFF743FE019A5FFA89F9CC
:10A0500012B12146584690470AF1010ABAF1040F9D
:10A06000B0D1B9F1000F06D04FF0A043039AD3F856
:10A070001035934202D107B0BDE8F08F0393049BE3
:10A08000059399E7006000407C610040342C00207B
:10A09000842C0020014B1B68184700BF902C002027
:10A0A0000E4B984237B50C4602D0002003B030BDAD
:10A0B00000230DF107008DF80730FDF773FB084B07
:10A0C0001D7915B901221C601A719DF80700FDF772
:10A0D0008DFB002DE9D01120E8E700BF00200040F3
:10A0E000902C0020034B984201BF034B00221A60C2
:10A0F0001A71704700200040902C0020002343502C
:10A1000082B043580193019B02B070470A4610B5D4
:10A110004FF48E71FFF7F2FF136A9168C95C136AFE
:10A1200001331362C0F81C1510BD10B58B690A46C7
:10A130004FF4847123B9FFF7E1FFD0F8183510BD53
:10A14000FFF7DCFF536AD168D0F81805C854536A8A
:10A1500001335362F3E700001FB501238DF800308F
:10A16000044BCDE90110D3E900126846904705B0D1
:10A170005DF804FB982C002030B54C48D0F804332F
:10A1800013F4007F85B005464DD0D0F82431002B64
:10A1900049D04FF49271FFF7B1FF4FF40173C0F84B
:10A1A0000833434B93F829200AB9012242603F4902
:10A1B00002228DF80020D1F88024C1F88024039277
:10A1C0009A690292DA6801920022C3E9062268467F
:10A1D000D3E9001290473548D0F81C315BB13449BF
:10A1E0004A690B6A9A420A464BD991F82830002BEB
:10A1F00047D1FFF78BFF2D48D0F844318BB14FF496
:10A20000A271FFF77BFF2A4B93F829200AB10122A4
:10A2100002609A692AB10022586AD9689A61FFF7E8
:10A220009BFF05B030BDD5F804335B07D3D5D5F817
:10A230000831002BCFD01E4C1C482146FFF775FF7C
:10A24000636AA2699A422346C5D1E26952B1236981
:10A25000E168E3600023606AA261E3616362FFF783
:10A260007BFFB8E794F829200AB901226A600F4AF7
:10A270004FF40171C2F808130022586AD9689A6134
:10A28000EDE70A484FF48E71FFF738FF5369002B52
:10A29000B1D051690291002391688DF8003001918D
:10A2A00053616846D2E900139847A4E700200040B4
:10A2B000982C00202DE9F8435A4B067991462C2220
:10A2C00002FB0632054692F82A200C469846002AE0
:10A2D00040F0A38054490068FFF7E2FE07460028DB
:10A2E00040F09D802268501C0BD0012393404FF01A
:10A2F000A0420321C2F80835236803F5E07342F851
:10A3000023106368591C1FBF03F5E0734FF0A04290
:10A31000002142F823102B68A269C3F82425217D6F
:10A32000637D2A680B43C2F86C35D4E900122B68B0
:10A33000C3F81425C3F80C15237D012B1FD1A36886
:10A340005A1C1FBF4FF0A04203F5E073002142F8F2
:10A350002310E268531C0BD0012393404FF0A0421E
:10A360000321C2F80835E36803F5E07342F82310CF
:10A37000D4E902122B68C3F80825C3F810152C2362
:10A38000734308EB0302C2F80490226948F80320E3
:10A39000B9F1000F2ED02868247F4FF48E71FFF79B
:10A3A000ADFE4FF4A2712868FFF7A8FE2B681F4A84
:10A3B000C3F804232A68110B42F30732002AAEBF08
:10A3C00002F160421A4A01F00F014FEA4413DBB276
:10A3D000AABF02F56142535482F800332B68012171
:10A3E00043F30732C3F3043301FA03F3520911496B
:10A3F00041F822302B680422C3F800252C2303FBEC
:10A4000006830022C3E9062283F829205A6101222B
:10A4100083F82A203846BDE8F8830827FAE7112791
:10A42000F8E700BF982C002079A10200800002000C
:10A4300014ED00E000E100E0F8B5036804792F4D69
:10A440000022C3F800252C2303FB04535B6883B16F
:10A4500003682B4AC3F80823026842F3073301213B
:10A460005B09C2F3043201FA02F22033254941F8B4
:10A47000232003684FF0FF3CD3F80C75D3F8146524
:10A48000D3F80825D3F81015C3F814C5C3F80CC5C4
:10A4900003686745C3F808C518BF07F5E077C3F838
:10A4A00010C51EBF4FF0A0434FF0020C43F827C069
:10A4B000771C1FBF4FF0A04306F5E076022743F854
:10A4C00026704E1C1FBF01F5E0714FF0A04302261D
:10A4D00043F82160531C1FBF4FF0A04302F5E07208
:10A4E000022143F822100068FFF7FCFD2C2303FB38
:10A4F0000454002384F82A306360F8BD982C0020AF
:10A500008402020000E100E02DE9F047214F90F8BD
:10A5100004904FF02C0808FB097405466669002E6C
:10A5200035D16261A160266284F8286000684FF42A
:10A530008E71FFF7E3FD2B6801229A60286821469F
:10A54000FFF7E4FD6368A0468BB92868D4F814A02F
:10A55000236A9A4511D82A68D2F81C31002BFBD007
:10A560000123D3602C2303FB097300225A61304678
:10A57000BDE8F08794F828303BB9D0F81C31002BA7
:10A58000F8D04146FFF7C2FDE2E70F26EAE71126C1
:10A59000EDE700BF982C00200023435082B04358C1
:10A5A0000193019B02B070471FB501238DF8003065
:10A5B000044BCDE90110D3E900126846904705B07D
:10A5C0005DF804FBC42C00207FB5434AD2F8246117
:10A5D000002E60D010464FF49271FFF7DDFF02238A
:10A5E0008DF80030D2F88034C2F880340393D2F86A
:10A5F0003C350293394BDA6801920022C3E9062206
:10A600006846D3E9001290473348D0F8443173B11B
:10A610004FF4A271FFF7C0FF304B9A693AB10022A4
:10A62000C3E90622D968D0F83C05FFF7BDFF2A48E8
:10A63000D0F82031ABB14FF49071FFF7ADFF01239B
:10A64000C360264B5A6962B1D0F84C1502910022C2
:10A6500099688DF8002001915A616846D3E900128B
:10A6600090471D48D0F858319BB14FF4AC71FFF7BB
:10A6700093FF1A4B5A6962B1D0F84C15029100222F
:10A6800099688DF8002001915A616846D3E900125B
:10A69000904704B070BDD2F81031002BB4D04FF405
:10A6A00088711046FFF778FF0C4BD2F83C0599698A
:10A6B0008842A9D1DC69D96864B1D2F8005225F08A
:10A6C0002005C2F800521A699C61DA60DE61FFF76A
:10A6D0006BFF99E79C61FAE700200040C42C002042
:10A6E0002DE9F843604B06799146242202FB06329D
:10A6F000054692F820200C469846002A40F0B0808B
:10A700005A490068FFF7CCFC0746002840F0AA80B1
:10A710002268501C0BD0012393404FF0A04203212C
:10A72000C2F80835236803F5E07342F82310636824
:10A73000591C1FBF03F5E0734FF0A042002142F8FF
:10A7400023102B68A269C3F82425217D637D2A6824
:10A750000B43C2F86C35D4E900212B68C3F80C25F3
:10A76000C3F81415237D012B1FD1A3685A1C1FBFEA
:10A770004FF0A04203F5E073002142F82310E26895
:10A78000531C0BD0012393404FF0A0420321C2F889
:10A790000835E36803F5E07342F82310D4E90212A8
:10A7A0002B68C3F80825C3F810152423734308EB5E
:10A7B0000302C2F80490226948F80320B9F1000F9F
:10A7C0003DD02868227F4FF48871FFF7E5FE2868A6
:10A7D0004FF49071FFF7E0FE28684FF49271FFF795
:10A7E000DBFE28684FF4A271FFF7D6FE4FF4AC7180
:10A7F0002868FFF7D1FE2B681D49C3F804132B68A6
:10A80000190B43F30733002BAEBF03F16043194B21
:10A8100001F00F014FEA4212D2B2AABF03F5614321
:10A820005A5483F800232B68012143F30732C3F302
:10A83000043301FA03F352090F4941F822302B681F
:10A840000822C3F80025242303FB06830022C3E962
:10A8500006225A61012283F820203846BDE8F88399
:10A860000827FAE71127F8E7C42C0020C9A5020041
:10A870001003420014ED00E000E100E0F8B53B4DAC
:10A880000479242303FB045302465B6883B1036805
:10A890003749C3F80813016841F3073301205B0906
:10A8A000C1F3043100FA01F12033324840F823109B
:10A8B0001168D1F8003223F02003C1F80032136888
:10A8C00001265E6010684FF4AC71FFF765FE1368F7
:10A8D000DE601368D3F858110029FBD00021C3F8BB
:10A8E000001513684FF0FF3CD3F80C75D3F81465CE
:10A8F000D3F80815D3F81005C3F80CC5C3F814C570
:10A9000013686745C3F808C518BF07F5E077C3F8B3
:10A9100010C51EBF4FF0A0434FF0020C43F827C0F4
:10A92000771C1FBF4FF0A04306F5E076022743F8DF
:10A930002670461C1FBF00F5E0704FF0A0430226B2
:10A9400043F820604B1C1FBF4FF0A04301F5E0719E
:10A95000022043F821001068FFF7C4FB242303FB07
:10A960000454002384F820306360F8BDC42C002018
:10A970001003420000E100E001F06043B3F1005F2A
:10A980002DE9F04105463BD11F4B0779242606FBF4
:10A99000073698467469002C34D17261B160006842
:10A9A0004FF49071FFF7F8FD4FF4AC712868FFF792
:10A9B000F3FD2B687269B168C3F84415C3F84825E4
:10A9C0002B6801229A607368BBB92B68D3F82021E9
:10A9D000D3F858411AB9002CF8D00F2408E0002C05
:10A9E000FBD10122DA602A68D2F85831002BFBD063
:10A9F000242303FB078700237B612046BDE8F08109
:10AA00001024FAE71124F8E7C42C00200220FCF7F8
:10AA1000ABB900002DE9F04780460D46FCF7C4F9BC
:10AA20000328044610D8012D10D0022D30D05DB976
:10AA30001A48FCF7DCFD1A4B04EB440213449E78E1
:10AA4000184B1B5DB34219D0BDE8F087144D00EBE5
:10AA50004002A918AE5C4A78470052B1DFF84C902A
:10AA60000E484A464FF48041FCF7A9FD08B989F821
:10AA700000803B192B449A780A4B1A55002EE3D0DC
:10AA8000094B1B68002BDFD03046BDE8F047184764
:10AA900000EB4004024804446678EFE7102D0020E4
:10AAA000502D0020692D0020642D0020E82C00206E
:10AAB00000780221FFF7AEBF08B5094B1B7853B1F0
:10AAC0000020FCF727F90120FCF724F9BDE8084035
:10AAD0000320FCF71FB9BDE80840FCF727B900BF09
:10AAE000E92C0020F8B57B4C237805461BB10023E8
:10AAF0002370FFF7E1FF172D00F28880DFE805F0F3
:10AB00000C17174354657680888D888D959A9A9A8C
:10AB10009A9AC4C9D1D9E4E4FFF7CEFF6E48FCF796
:10AB200066FD6E4B002204461A702046F8BD0020D8
:10AB3000FCF7D6F8F8B10020FCF7ECF8022D0CBFBA
:10AB40004FF4E1614FF47A61644B1D704FF40040A3
:10AB50004FF47A740025E0FB01454FF4FA620023BC
:10AB60002046294605F0AEFB00220146BDE8F8402C
:10AB70005948FCF724BDFCF7C1F8022D0CBFC821D1
:10AB80004FF4C871E0E70020FCF7AAF840B10020BC
:10AB9000FCF7C0F84FF44871504B03221A70D5E708
:10ABA000FCF7ACF8C821F7E70020FCF799F838B1BA
:10ABB0000020FCF7AFF84FF47A61484B0422EDE730
:10ABC000FCF79CF84FF4C871F7E70020FCF788F811
:10ABD00048B10020FCF79EF8404B05221A7040F661
:10ABE000CD410022C2E7FCF789F8F5E70020FCF729
:10ABF000BBF83A4B06221A70002240F26661B5E7B4
:10AC00000020FCF77BF8354B07221A7000248CE7F4
:10AC100001202070FCF7A8F8EEE701202070FCF777
:10AC2000A3F800224FF40051A0E7FCF78EF82B4B5D
:10AC30000C22EAE72A482B4EFCF7D9FCD5F1110586
:10AC400004461CD0D8B9012D13D0C8235D434FF45E
:10AC500000474FF47A7000214FF4FA620023C7FBDB
:10AC6000050105F02FFB224601461D48FCF7A7FC15
:10AC700004460220FCF742F80123337055E7022016
:10AC8000FCF748F80023F8E7FFF716FF134B1222F2
:10AC9000BBE7FFF711FF0020FCF730F80F4B132242
:10ACA000B3E7FFF709FF0120FCF728F80B4B14224C
:10ACB000ABE7FFF701FF0020FCF720F80120FCF7CD
:10ACC0001DF8064B1522A0E7FCF73FF8034B1D705B
:10ACD0009CE700BF602D0020302D0020682D002053
:10ACE000F02C0020E92C0020044B1B68DB0703D567
:10ACF000034B1878FFF7F6BE704700BF5C2D0020AD
:10AD0000682D0020032801D8FCF740B800207047C8
:10AD1000044B1B6813F0010301D0FFF7E3BE184694
:10AD2000704700BF5C2D002038B51C4B18601C4BD1
:10AD300010F00204054619601AD01A4B1A480E2268
:10AD40001A700F22DA7010229A7111225A7204219D
:10AD500040F23332FCF7C8FA044648B9FCF71AFB54
:10AD6000044628B90146114A1148FCF71DFC044667
:10AD7000EB0711D50120FCF72FF86CB921460D4ADD
:10AD80000D48FCF711FC044630B9BDE838400B4AC9
:10AD90000B480121FCF708BC204638BD5C2D002083
:10ADA000642D0020502D0020E80E0300B1AA0200FF
:10ADB0000C0F0300E9AC0200100F03000DAA020003
:10ADC000080F0300032811D8012A0AD101290FD145
:10ADD00000F10E02D2B20D4B00EB40001A540020DD
:10ADE00070470129F7D0022904D049B107207047E4
:10ADF0000022F8E7054B00EB400018444270EEE7F4
:10AE0000024B00EB400018448270E8E7502D002010
:10AE1000032808B512D8FBF7D9FF800000F1A04045
:10AE2000D0F8003723F44033C0F80037D0F80037AB
:10AE300043F44033C0F80037002008BD0620FCE78B
:10AE400008B5012202210020FFF7BCFF08B1072846
:10AE500010D1072202210120FFF7B4FF08B1072813
:10AE600008D100210A220846FFF7ACFF10B10728DD
:10AE700008BF002008BD000010B50388102B02D0C9
:10AE8000112B1ED010BD1A4C2168B1B90122084601
:10AE9000FFF798FF08B1072824D1072202210120DB
:10AEA000FFF790FF08B107281CD1042202210020DF
:10AEB000FFF788FF08B1072814D123680133236006
:10AEC000E0E70B4A1368013B1360002BDAD1FFF770
:10AED000B7FF0028D6D0074B1B68002BD2D0BDE8A7
:10AEE00010401847034B1B68002BE6D09847E4E757
:10AEF000742D0020702D002008B50020FFF788FF7A
:10AF000008B1062806D10120FFF782FF10B10628FC
:10AF100008BF002008BD00000D4B10B518600C469E
:10AF200029B10120FFF7EEFE40B102232370094B47
:10AF30001B6853B9BDE81040FFF782BFFFF7E2FE80
:10AF400008B10B23F2E72070F1E7002010BD00BF2D
:10AF5000702D0020742D002076DF70477ADF704757
:10AF60007CDF70478FDF7047FCF72ABA08B50020F6
:10AF7000FFF7CEFE08B1FCF723FAFFF7BDFF08B1DB
:10AF8000FCF71EFA04F090FF18B1BDE80840FCF78A
:10AF900017BA08BD13B503883B2B044608D005D863
:10AFA000102B0AD0212B19D002B010BD562BFBD18B
:10AFB000A0881321FFF7D0FF0BE00720FFF7A8FEC2
:10AFC00008B1FCF7FDF9094BA1880948198002F086
:10AFD000CFFA0028E8D0FCF7F3F9E5E7002301A950
:10AFE0008088ADF80430FFF7BDFFF2E79C22002017
:10AFF000C031002010B5044603F0D4FD2046BDE862
:10B00000104003F0B1BB000030B51F4B1F4A9B1A24
:10B01000DB088DB01B04032833D8DFE800F00226DC
:10B020002C3043F003041A492046FBF7C5FC2C22C0
:10B03000002101A805F034F9002501234FF4967290
:10B0400014488DF8083001A9CDE905258DF80430A4
:10B0500000F0B6FE2946104801F04EF90F490246AD
:10B060002046FBF7ADFC0DB030BD0D4943F00300A9
:10B07000FBF7A2FCF7E70B4943F00100F8E70A49A8
:10B08000FAE70A49F8E700BF842C03005C2C0300B0
:10B09000140F0300782D0020B1B00200420F03000E
:10B0A000590F03007C0F0300B50F0300E20F0300EC
:10B0B00013B513210190FFF74FFF019A034660B1CA
:10B0C0000748084C0849241AE408240444F0020004
:10B0D00002B0BDE81040FBF77CBC02B010BD00BF61
:10B0E0005C2C0300842C030009100300022807B520
:10B0F0000ED1094B09480A49C01AC008000440F0A3
:10B1000003000190FBF758FC06490198FBF754FC3B
:10B11000012003B05DF804FB5C2C0300842C0300C9
:10B120004A10030077100300032807D14FF0804333
:10B13000A922C3F820250020FEF78EBB704700002F
:10B1400008B503784BB9054B3B211888FFF704FF7E
:10B1500018B1BDE80840FCF733B908BD9C220020B7
:10B16000072808B513D00A280DD0042819D10D4B93
:10B1700013211888FFF7F0FE30F0080311D0BDE866
:10B180000840FCF71DB9BDE80840FFF7EFBE054BCE
:10B190001A884FF6FF739A4203D1034800F0F2FD7C
:10B1A000EAE708BD9C220020782D002008B548B1B0
:10B1B00003280BD10220FFF7ABFD38B1BDE80840F2
:10B1C000FCF7FEB8BDE80840FFF7D0BE08BDFCF7AD
:10B1D000F7B8000030B54FF48041AFB00020FBF766
:10B1E00035FA08B1FCF7ECF8FBF766F904F018FD46
:10B1F00008B1FCF7E5F8FCF7A5F908B1FCF7E0F8B1
:10B20000FEF7DAFA08B1FCF7DBF875490320FFF71F
:10B210008BFD08B1FCF7D4F803A90020FFF77CFEF2
:10B2200008B1FCF7CDF89DF80C4004F0FFFD08B123
:10B23000FCF7C6F8002303A90120039304F0BEFE27
:10B2400008B1FCF7BDF803A804F06AFF08B1FCF7E9
:10B25000B7F802F059FF08B1FCF7B2F80522002157
:10B2600003A805F01DF8039B03F07C425D4B1343DC
:10B2700003939DF8103023F0030343F0030303A866
:10B280008DF8103002F0DAFF08B1FCF799F8564853
:10B2900002F0BCFF08B1FCF793F8112353488DF876
:10B2A000083005F005F8514982B202A8FFF758FEB0
:10B2B00008B1FCF785F80021082203A804F0F0FF8C
:10B2C0004B494FF0C87303A8CDE90313FFF746FEBF
:10B2D00008B1FCF775F84748002102F041F808B1C1
:10B2E000FCF76EF8AC22002103A804F0D9FF02237A
:10B2F0008DF80C3040F20163ADF80E3001253E4B65
:10B3000008932C22002121A8ADF81C5004F0C8FF9E
:10B3100000234FF49672CDE925233848384B8DF839
:10B32000885003A92C9300F06DFB08B1FCF748F896
:10B330003248012100F063FB002303933148324B74
:10B34000029302A902F002F908B1FCF739F82F4B79
:10B35000039303A804F0E8FB08B1FCF731F81C22C2
:10B36000002103A804F09CFF00234FF4A032CDE994
:10B370000332ADF81A304FF4F0228DF81C30244B14
:10B38000059208930322234B8DF8182003A80993F4
:10B3900000F020FE08B1FCF713F81F4B1F482049AE
:10B3A000C01AC008000440F003000190FBF704FB42
:10B3B000022C0FD11B490198FBF7FEFA02F06AFF3D
:10B3C00008B1FBF7FDFFFBF79BF90028FBD1FEF767
:10B3D0001DFAF8E70321094800F093FBF0E700BFEE
:10B3E00061B1020031071003F5AF0200A61003009F
:10B3F0005000A000AC31002098220020782D0020C1
:10B40000ADB10200C031002069AF020009B00200F6
:10B4100041B10200CFB102005C2C0300842C030078
:10B42000B8100300DC10030013DF704738B540F696
:10B43000F873134C1D68134BE41AE4086A1C4FEAB6
:10B44000044403D1104B1D686B1C11D02A460F49D0
:10B4500044F00300FBF7B4FA2846FFF7E5FF054682
:10B4600020B10B4944F00100FBF7A6FA284638BD8D
:10B47000084944F00100FBF79FFA0425F6E700BFF6
:10B48000842C03005C2C030014100010E91003004E
:10B49000141103004711030038B50B4B0B4C0C4A39
:10B4A0000C49E41AE408240444F00300FBF788FA8A
:10B4B0000748FFF7B9FF054620B1074944F00100EE
:10B4C000FBF77AFA284638BD5C2C0300842C030075
:10B4D000006002005F110300141103006DDF70476C
:10B4E00079DF70477DDF704764DF70472DE9F04FEB
:10B4F00085B000250E9CBDF83CB0B4F800A00191C9
:10B50000074690461E46A9463A884A450DDC45B195
:10B510002388013BA3EB0A039BB2FF2B3AD806F822
:10B520000A30002005B0BDE8F08F7A6852F8290093
:10B53000039000220DF10B0103A8FFF7D5FF0028AF
:10B54000F0D19DF80B20424521D12288002D14BF57
:10B550000020022002EB0801014459451ADC3DB9E4
:10B56000013292B2019B2280B354228801322280A0
:10B5700022880DF10B01324403A8FFF7B5FF002824
:10B58000D0D121889DF80B200A442280012509F1A1
:10B590000109B9E70C20C5E72DE9F341089FBDF883
:10B5A00024801546CDE90078022204461E46FFF7A6
:10B5B0009DFF50B93346102229462046CDE9087830
:10B5C00002B0BDE8F041FFF791BF02B0BDE8F081E5
:10B5D0002DE9F04F00231788138090F82D3085B0A7
:10B5E00006460D46144653B3082F01D80C2027E118
:10B5F00002A8FFF773FF002840F022812388082269
:10B60000EA54238801339BB21B222380EA5420880A
:10B61000013080B2208006220DF10901284404F097
:10B6200031FE23889DF8082006339BB212F0FE02FB
:10B6300018BF01222380EA54238801332380B37882
:10B64000FBB123880433BB42D0D802A8FFF748FFE0
:10B65000002840F0F58023880322EA542388013330
:10B660009BB219222380EA542388BDF808200133B5
:10B670009BB2E9182380EA54120A4A7023880233E5
:10B680002380F2789AB12388D91CB942AED802211E
:10B69000E954238801339BB201212380E954238894
:10B6A0000B449BB22380EA5423880B4423807268A6
:10B6B000AAB12388D91CB94298D8022192F9002056
:10B6C000E954238801339BB20A212380E95423885B
:10B6D00001339BB22380EA542388013323803389CA
:10B6E000002B40F0A180338A5BB1CDE900472B46A7
:10B6F0000722032106F11000FFF74EFF002840F05B
:10B700009F80338B5BB1CDE900472B461522142176
:10B7100006F11800FFF740FF002840F09180326AE0
:10B72000002A40F09080D6F82480B8F1000F30D085
:10B73000B8F804302188981C8A1C0244BA423FF6AB
:10B7400055AFFE283FF652AF03336B5423880133C5
:10B750009BB2FF222380EA54238801339BB22380CB
:10B76000B8F80020EA54E918120A4A70208802301A
:10B7700080B22080B8F804205AB1D8F80810002907
:10B780006BD0284404F07EFD2388B8F804201344CD
:10B79000238096F82C30002B40F09A8030780028D7
:10B7A0004ED03388012B58D0228802F1020CBC45C0
:10B7B0003FF61CAF012805D17378023313449F4232
:10B7C000FFF414AF023FBF1ABFB202A905EB0C0091
:10B7D000ADF80870FFF786FE90BB3178BDF80830F1
:10B7E000022900F0BA8072789A4202D3BB4240F23A
:10B7F000B280012940F0B380974293B2C0F0AF808D
:10B80000ADF808300821BDF80830FE2B3FF6EEAE4B
:10B8100022880133AB542288013292B22280A9548B
:10B820002288134423800BE0CDE900472B460622F3
:10B83000022106F10800FFF7AFFE00283FF453AFE6
:10B8400005B0BDE8F08FB4F800C00CF10603BB42B0
:10B850003FF6CCAE1188052901D80720F0E76FF438
:10B86000486E01EB0E039BB24FF27D3E7345F4D957
:10B870005388052BF1D96FF44860181880B27045D1
:10B88000EBD94FF6FF70814203D0834201D0994239
:10B89000E3D8052305F80C30238801339BB212212D
:10B8A0002380E954238801339BB223801188E95413
:10B8B000E818090A4170238802339BB2238052881A
:10B8C000EA54E918120A4A702388023323802AE7CF
:10B8D000B36A002BC1D04FF000094FF00C0A4FF0B3
:10B8E000160B96F82C305FFA89F293427FF656AF2A
:10B8F000B16A0AFB02F201EB0208B8F80430981CA6
:10B90000FE283FF673AE208803332B54238801337F
:10B910009BB2238005F803B0238801339BB22380B8
:10B920008A5AEA54E918120A4A702088023080B212
:10B930002080B8F804205AB1D8F8081000298CD01B
:10B94000284404F09FFC2388B8F804201344238083
:10B9500009F10109C5E7092155E7BB42FBD9ADF85B
:10B9600008704FE770B5E8B14AB116880024B442B8
:10B9700003D305196D789D4208D0A14201D800205B
:10B9800010E0055D01352C44A4B2F0E7A142F6D9E0
:10B99000005D0138A31C80B29DB210FA83F38B4284
:10B9A000EDDC158070BD13B513460022ADF80620FE
:10B9B0000DF106020446FFF7D5FF10B1BDF80630C1
:10B9C000E01802B010BD72DF704773DF704774DF9C
:10B9D000704738B5012204460D46B0F81414D0F86B
:10B9E0001004FFF7E0FF00B1057004F13C0204F51C
:10B9F000826104F15400BDE83840FFF7E4BF80F8ED
:10BA000030107047F8B504460F46002975D000285D
:10BA100073D091F87A301BB191F89830002B6ED129
:10BA2000D7F8A030042B6AD0D7F89C30042B66D00E
:10BA30004FF0000C84F802C007F178060FCE251DE8
:10BA40000FC50FCE0FC596E8070085E8070084F8FC
:10BA500030C0D7F8A4306363D7F8A830A3634FF69B
:10BA6000FF7504F58263C4F82034A4F82454072237
:10BA7000614604F2264004F013FC23780BB984F8E5
:10BA8000545094F82430002B14BFEE231F2304F1EC
:10BA90005501C4F81014A4F8143404F214423846C2
:10BAA000FFF796FD40BB94F82430002B14BFEE2323
:10BAB0001F2304F23121C4F81814A4F81C3404F232
:10BAC0001C4207F13C00FFF783FDA8B9A369A4F865
:10BAD00048304FF480730125A4F850306369206426
